:0200000003FFFC
:0200010003FFFB
:0200020003FDFC
:0200030003FBFD
:0200040003F9FE
:0200050003F7FF
:0200060003F500
:0200070003F301
:0200080003F102
:0200090003EF03
:02000A0003ED04
:02000B0003EB05
:02000C0003E906
:02000D0003E707
:02000E0003E508
:02000F0003E309
:0200100003E10A
:0200110003E00A
:0200120003DE0B
:0200130003DC0C
:0200140003DA0D
:0200150003D80E
:0200160003D60F
:0200170003D410
:0200180003D310
:0200190003D111
:02001A0003CF12
:02001B0003CD13
:02001C0003CB14
:02001D0003CA14
:02001E0003C815
:02001F0003C616
:0200200003C417
:0200210003C218
:0200220003C118
:0200230003BF19
:0200240003BD1A
:0200250003BB1B
:0200260003BA1B
:0200270003B81C
:0200280003B61D
:0200290003B51D
:02002A0003B31E
:02002B0003B11F
:02002C0003AF20
:02002D0003AE20
:02002E0003AC21
:02002F0003AA22
:0200300003A922
:0200310003A723
:0200320003A524
:0200330003A424
:0200340003A225
:0200350003A026
:02003600039F26
:02003700039D27
:02003800039C27
:02003900039A28
:02003A00039829
:02003B00039729
:02003C0003952A
:02003D0003932B
:02003E0003922B
:02003F0003902C
:02004000038F2C
:02004100038D2D
:02004200038C2D
:02004300038A2E
:0200440003882F
:0200450003872F
:02004600038530
:02004700038430
:02004800038231
:02004900038131
:02004A00037F32
:02004B00037E32
:02004C00037C33
:02004D00037B33
:02004E00037934
:02004F00037834
:02005000037635
:02005100037535
:02005200037336
:02005300037236
:02005400037037
:02005500036F37
:02005600036D38
:02005700036C38
:02005800036A39
:02005900036939
:02005A0003673A
:02005B0003663A
:02005C0003653A
:02005D0003633B
:02005E0003623B
:02005F0003603C
:02006000035F3C
:02006100035D3D
:02006200035C3D
:02006300035B3D
:0200640003593E
:0200650003583E
:0200660003563F
:0200670003553F
:0200680003543F
:02006900035240
:02006A00035140
:02006B00034F41
:02006C00034E41
:02006D00034D41
:02006E00034B42
:02006F00034A42
:02007000034942
:02007100034743
:02007200034643
:02007300034543
:02007400034344
:02007500034244
:02007600034144
:02007700033F45
:02007800033E45
:02007900033D45
:02007A00033B46
:02007B00033A46
:02007C00033946
:02007D00033846
:02007E00033647
:02007F00033547
:02008000033447
:02008100033248
:02008200033148
:02008300033048
:02008400032F48
:02008500032D49
:02008600032C49
:02008700032B49
:02008800032A49
:0200890003284A
:02008A0003274A
:02008B0003264A
:02008C0003254A
:02008D0003234B
:02008E0003224B
:02008F0003214B
:0200900003204B
:02009100031F4B
:02009200031D4C
:02009300031C4C
:02009400031B4C
:02009500031A4C
:0200960003184D
:0200970003174D
:0200980003164D
:0200990003154D
:02009A0003144D
:02009B0003134D
:02009C0003114E
:02009D0003104E
:02009E00030F4E
:02009F00030E4E
:0200A000030D4E
:0200A100030C4E
:0200A200030A4F
:0200A30003094F
:0200A40003084F
:0200A50003074F
:0200A60003064F
:0200A70003054F
:0200A80003044F
:0200A900030250
:0200AA00030150
:0200AB00030050
:0200AC0002FF51
:0200AD0002FE51
:0200AE0002FD51
:0200AF0002FC51
:0200B00002FB51
:0200B10002F952
:0200B20002F852
:0200B30002F752
:0200B40002F652
:0200B50002F552
:0200B60002F452
:0200B70002F352
:0200B80002F252
:0200B90002F152
:0200BA0002F052
:0200BB0002EF52
:0200BC0002ED53
:0200BD0002EC53
:0200BE0002EB53
:0200BF0002EA53
:0200C00002E953
:0200C10002E853
:0200C20002E753
:0200C30002E653
:0200C40002E553
:0200C50002E453
:0200C60002E353
:0200C70002E253
:0200C80002E153
:0200C90002E053
:0200CA0002DF53
:0200CB0002DE53
:0200CC0002DD53
:0200CD0002DC53
:0200CE0002DB53
:0200CF0002DA53
:0200D00002D953
:0200D10002D853
:0200D20002D753
:0200D30002D653
:0200D40002D553
:0200D50002D453
:0200D60002D353
:0200D70002D253
:0200D80002D153
:0200D90002D053
:0200DA0002CF53
:0200DB0002CE53
:0200DC0002CD53
:0200DD0002CC53
:0200DE0002CB53
:0200DF0002CA53
:0200E00002C953
:0200E10002C853
:0200E20002C753
:0200E30002C653
:0200E40002C553
:0200E50002C453
:0200E60002C353
:0200E70002C253
:0200E80002C153
:0200E90002C053
:0200EA0002BF53
:0200EB0002BE53
:0200EC0002BD53
:0200ED0002BC53
:0200EE0002BC52
:0200EF0002BB52
:0200F00002BA52
:0200F10002B952
:0200F20002B852
:0200F30002B752
:0200F40002B652
:0200F50002B552
:0200F60002B452
:0200F70002B352
:0200F80002B252
:0200F90002B152
:0200FA0002B151
:0200FB0002B051
:0200FC0002AF51
:0200FD0002AE51
:0200FE0002AD51
:0200FF0002AC51
:0201000002AB50
:0201010002AA50
:0201020002A950
:0201030002A94F
:0201040002A84F
:0201050002A74F
:0201060002A64F
:0201070002A54F
:0201080002A44F
:0201090002A34F
:02010A0002A24F
:02010B0002A24E
:02010C0002A14E
:02010D0002A04E
:02010E00029F4E
:02010F00029E4E
:02011000029D4E
:02011100029C4E
:02011200029C4D
:02011300029B4D
:02011400029A4D
:0201150002994D
:0201160002984D
:0201170002974D
:0201180002964D
:0201190002964C
:02011A0002954C
:02011B0002944C
:02011C0002934C
:02011D0002924C
:02011E0002924B
:02011F0002914B
:0201200002904B
:02012100028F4B
:02012200028E4B
:02012300028D4B
:02012400028D4A
:02012500028C4A
:02012600028B4A
:02012700028A4A
:0201280002894A
:02012900028949
:02012A00028849
:02012B00028749
:02012C00028649
:02012D00028549
:02012E00028548
:02012F00028448
:02013000028348
:02013100028248
:02013200028148
:02013300028147
:02013400028047
:02013500027F47
:02013600027E47
:02013700027E46
:02013800027D46
:02013900027C46
:02013A00027B46
:02013B00027A46
:02013C00027A45
:02013D00027945
:02013E00027845
:02013F00027745
:02014000027744
:02014100027644
:02014200027544
:02014300027444
:02014400027443
:02014500027343
:02014600027243
:02014700027143
:02014800027142
:02014900027042
:02014A00026F42
:02014B00026E42
:02014C00026E41
:02014D00026D41
:02014E00026C41
:02014F00026B41
:02015000026B40
:02015100026A40
:02015200026940
:0201530002693F
:0201540002683F
:0201550002673F
:0201560002663F
:0201570002663E
:0201580002653E
:0201590002643E
:02015A0002643D
:02015B0002633D
:02015C0002623D
:02015D0002613D
:02015E0002613C
:02015F0002603C
:02016000025F3C
:02016100025F3B
:02016200025E3B
:02016300025D3B
:02016400025D3A
:02016500025C3A
:02016600025B3A
:02016700025A3A
:02016800025A39
:02016900025939
:02016A00025839
:02016B00025838
:02016C00025738
:02016D00025638
:02016E00025637
:02016F00025537
:02017000025437
:02017100025436
:02017200025336
:02017300025236
:02017400025235
:02017500025135
:02017600025035
:02017700025034
:02017800024F34
:02017900024E34
:02017A00024E33
:02017B00024D33
:02017C00024C33
:02017D00024C32
:02017E00024B32
:02017F00024A32
:02018000024A31
:02018100024931
:02018200024831
:02018300024830
:02018400024730
:02018500024630
:0201860002462F
:0201870002452F
:0201880002442F
:0201890002442E
:02018A0002432E
:02018B0002432D
:02018C0002422D
:02018D0002412D
:02018E0002412C
:02018F0002402C
:02019000023F2C
:02019100023F2B
:02019200023E2B
:02019300023D2B
:02019400023D2A
:02019500023C2A
:02019600023C29
:02019700023B29
:02019800023A29
:02019900023A28
:02019A00023928
:02019B00023927
:02019C00023827
:02019D00023727
:02019E00023726
:02019F00023626
:0201A000023526
:0201A100023525
:0201A200023425
:0201A300023424
:0201A400023324
:0201A500023224
:0201A600023223
:0201A700023123
:0201A800023122
:0201A900023022
:0201AA00022F22
:0201AB00022F21
:0201AC00022E21
:0201AD00022E20
:0201AE00022D20
:0201AF00022C20
:0201B000022C1F
:0201B100022B1F
:0201B200022B1E
:0201B300022A1E
:0201B400022A1D
:0201B50002291D
:0201B60002281D
:0201B70002281C
:0201B80002271C
:0201B90002271B
:0201BA0002261B
:0201BB0002251B
:0201BC0002251A
:0201BD0002241A
:0201BE00022419
:0201BF00022319
:0201C000022318
:0201C100022218
:0201C200022118
:0201C300022117
:0201C400022017
:0201C500022016
:0201C600021F16
:0201C700021F15
:0201C800021E15
:0201C900021E14
:0201CA00021D14
:0201CB00021C14
:0201CC00021C13
:0201CD00021B13
:0201CE00021B12
:0201CF00021A12
:0201D000021A11
:0201D100021911
:0201D200021910
:0201D300021810
:0201D400021710
:0201D50002170F
:0201D60002160F
:0201D70002160E
:0201D80002150E
:0201D90002150D
:0201DA0002140D
:0201DB0002140C
:0201DC0002130C
:0201DD0002130B
:0201DE0002120B
:0201DF0002120A
:0201E00002110A
:0201E10002100A
:0201E200021009
:0201E300020F09
:0201E400020F08
:0201E500020E08
:0201E600020E07
:0201E700020D07
:0201E800020D06
:0201E900020C06
:0201EA00020C05
:0201EB00020B05
:0201EC00020B04
:0201ED00020A04
:0201EE00020A03
:0201EF00020903
:0201F000020902
:0201F100020802
:0201F200020801
:0201F300020701
:0201F400020700
:0201F500020600
:0201F6000206FF
:0201F7000205FF
:0201F8000205FE
:0201F9000204FE
:0201FA000204FD
:0201FB000203FD
:0201FC000203FC
:0201FD000202FC
:0201FE000202FB
:0201FF000201FB
:00000001FF
